:100000000C94D1010C94EE010C94EE010C94EE01D1
:100010000C94EE010C94EE010C94EE010C94EE01A4
:100020000C94EE010C94EE010C94EE010C94EE0194
:100030000C94EE010C94EE010C94EE010C94EE0184
:100040000C94EE010C94EE010C94EE010C94EE0174
:100050000C94EE010C94EE010C94EE010C94EE0164
:100060000C94EE010C94EE010C94EE010C94EE0154
:100070000C94EE010C94EE010C94EE010C94EE0144
:100080000C94EE010C94EE010C94EE010C94EE0134
:100090000C94EE010C94EE010C94EE010C94EE0124
:1000A0000C94EE010C94EE010C94EE016E616E0066
:1000B000696E66000000804000000808080808001B
:1000C0000000400000004030080601003E41414170
:1000D0003E0040427F404000625151514E0022415B
:1000E00049493E001814127F10004F494949310018
:1000F0003E49494932000101710907003649494921
:100100003600264949493E000000360000000080C4
:1001100068000000000814220000001414140000FD
:1001200000221408000201B10906003E4D53552E6D
:10013000007816111678007F49494936003E414142
:100140004122007F4141413E007F49494941007FB2
:1001500009090901003E4141493A007F0808087F2A
:100160000041417F4141002040413F01007F081490
:100170002241007F40404040007F0204027F007F18
:100180000608307F003E4141413E007F09090906D3
:10019000003E4141615E007F090919660026494918
:1001A00049320001017F0101003F4040403F00070C
:1001B00018601807003F4038403F0063140814637C
:1001C0000001027C020100615149454300007F416A
:1001D00041000001020C1860000041417F00000452
:1001E00002010204008080808080800001020400FF
:1001F000003844442478007F4848300000384444A4
:10020000442800003048487F003C4A4A4A2C0000FD
:10021000087F090200005C949C7800007F08700051
:100220000000007A0000004080807400007F1068A9
:1002300000000000007F0000007810201060000027
:100240007810106000304848300000F8283800006E
:10025000003828F80800007C0808100000244A4AEA
:1002600032000000047E04000000384040380000E6
:10027000186018000038402040380000502050001E
:10028000000080502010000064544C4C000000001E
:10029000000000000000000000000000000000005E
:1002A000000000000000000000407A10F35A00A097
:1002B000724E18090010A5D4E80000E8764817002F
:1002C00000E40B54020000CA9A3B000000E1F5056F
:1002D000000080969800000040420F000000A086B9
:1002E00001000000102700000000E80300000000EB
:1002F0006400000000000A0000000000010000008F
:1003000000002C76D888DC674F0823DFC1DFAE59A8
:10031000E1B1B796E5E3E453C63AE651997696E83B
:10032000E6C28426EB898C9B62ED407C6FFCEFBCBF
:100330009C9F40F2BAA56FA5F490055A2AF75C93EA
:100340006B6CF9676DC11BFCE0E40D47FEF520E620
:10035000B500D0ED902E0300943577050080841E03
:10036000080000204E0A000000C80C333333330F5E
:10037000986E12831141EF8D2114893BE65516CFFB
:10038000FEE6DB18D1844B381BF77C1D901DA4BB07
:10039000E424203284725E228100C9F124ECA1E5BC
:1003A0003D2711241FBECFEFDAE0DEBFCDBF11E045
:1003B000A0E0B1E0E8EFF4E102C005900D92A232B6
:1003C000B107D9F721E0A2E2B1E001C01D92A0344B
:1003D000B207E1F70E9482060C947A0A0C9400009E
:1003E0008FEF84B980E48AB9559A549808955D9A3C
:1003F00088E28A95F1F75D984C9BFECF80E04C9B9C
:1004000006C098E69A95F1F78F5F8F3FC1F7089580
:10041000E2E3F1E090E28EE08E0F91938E13FDCF38
:100420000895E2E3F1E090E28EE08E0F91938E1357
:10043000FDCF08958EBD0DB407FEFDCF8EB5089596
:1004400095B19F7395B90E941A022F9A089583E57A
:100450008CBD84B1876E84B92D9883EC99E00197A7
:10046000F1F700C000002D9A81E20E94200284E191
:100470000E94200280EB0E94200280E20E94200263
:100480008CE00C9420020F931F93CF93DF932E9A4E
:100490002F98803261F4C6E080E00E941A02C150B9
:1004A000D9F72F9ADF91CF911F910F910895082EC0
:1004B000000C990B8C9726E0289F8001299F100D36
:1004C0001124C0E0D0E001501109F801EC0FFD1F2C
:1004D000EC54FF4F84910E941A022196C630D10538
:1004E000A1F7DFCF0F931F93CF93DF93FC01019010
:1004F0000020E9F73197CE2FC81BD82F8C01802F11
:100500008D1B8C1730F4F80181918F010E944302FA
:10051000F6CFDF91CF911F910F910895877080647E
:100520000E94200280E80C942002CF93DF9380E4A5
:100530000E94200280E80E9420022E9A2F98C8EF85
:10054000D1E080E00E941A0281E28A95F1F7000072
:100550002197B9F72F9ADF91CF9108959C01539A73
:100560005298E9ECF0E0908198619083EAECF0E039
:100570009081966090833093CD002093CC000895B5
:100580009091C80095FFFCCF8093CE000895CF9343
:10059000DF93EC018991882319F00E94C002FACF01
:1005A000DF91CF9108952091C80027FD0AC06623EE
:1005B00071F0E9EFF0E03197F1F700C00000615011
:1005C000F2CF2091CE00FC01208380E0089581E0ED
:1005D00008952091C80027FD0AC0662371F0E9EF55
:1005E000F0E03197F1F700C000006150F2CF2091A8
:1005F000CE00FC01208380E0089581E00895809181
:10060000C80087FFFCCF8091CE000895A3E1B0E041
:10061000ECE0F3E00C948A086C014B012A01FC0128
:1006200017821682838181FF43C3AE014F5F5F4F04
:100630003A01F6019381F40193FD859193FF819135
:100640004F01882309F430C3853239F493FD859135
:1006500093FF81914F01853239F4B60190E00E94F9
:10066000C10952012501E5CF10E0F12C20E0203234
:10067000A0F48B3269F030F4803259F0833269F49F
:1006800020612CC08D3239F0803339F4216026C0CE
:100690002260246023C0286021C027FD27C030EDE0
:1006A000380F3A3078F426FF06C0FAE01F9F300D6D
:1006B0001124132F13C04AE0F49E300D1124F32EA1
:1006C00020620CC08E3221F426FDEEC2206406C0EA
:1006D0008C3611F4206802C0883641F4F40193FD91
:1006E000859193FF81914F018111C1CF9BEB980FB1
:1006F000933018F42061805E06C09BE9980F933018
:1007000008F071C12F7E26FF16E02F73322E85363A
:1007100019F42064322E08C0863621F4F22FF068D6
:100720003F2E02C01111115037FE07C01C3350F488
:10073000EE24E394E10E27E00BC0183038F027E0F8
:1007400017E005C027E04CE3E42E02C0212FE12C86
:10075000520144E0A40EB11CF201608171818281DA
:1007600093810E2DA3010E94C1082C01098100FF75
:1007700002C003FF07C031FC08C032FE09C030E2EE
:10078000232E07C02DE2222E04C09BE2292E01C099
:10079000212C802F8C7019F0211068C2A8C237FE5E
:1007A0000FC0E40C04FF04C08A81813309F4EA9489
:1007B0001E1474F5F8E0FE1578F588E0E82E2CC0DC
:1007C00036FC2AC0812F90E0841595059CF02CEF13
:1007D00042162FEF520674F0432D4068342E0AC0A3
:1007E000E2E0F0E0EC0FFD1FE10FF11D80818033AE
:1007F00019F411501111F4CF37FE0EC0EE24E3941A
:10080000E10E812F90E0481659062CF4141904C00B
:10081000EE24E39401C010E037FE06C01414150462
:1008200034F4C201019605C085E090E002C081E089
:1008300090E021100196112331F0212F30E02F5F3D
:100840003F4F820F931F2F2D30E08217930714F430
:10085000F81A01C0F12C832D897049F4FF2039F07A
:10086000B60180E290E00E94C109FA94F7CF2220FD
:1008700029F0B601822D90E00E94C10933FC09C025
:10088000FF2039F0B60180E390E00E94C109FA949C
:10089000F7CF37FE5AC0942D852D57FE02C090E049
:1008A00080E0292E382E20E030E0A2014E195109B7
:1008B0005D874C87A201421953095F874E87612FDC
:1008C00070E044275527461B570B598B488B5FEF29
:1008D0002516350649F4B6018EE290E02A8B3B8B53
:1008E0000E94C1093B892A89421453046CF04C854B
:1008F0005D854215530544F4EE85FF85E20FF31F35
:10090000E60DF71D818101C080E351E0251A310811
:100910002F5F3F4F48895989241635064CF0B601A0
:1009200090E02A8B3B8B0E94C1092A893B89CFCF5B
:100930002414350439F49A81963318F4953311F45C
:1009400004FF81E3B60190E04BC08A81813309F056
:100950000F7EB60190E00E94C109111105C034FC60
:1009600018C085E690E017C0B6018EE290E00E94C4
:10097000C10982E0EE24E394E80EF301E80FF11DD3
:100980008081B60190E00E94C10911508E2D91F72F
:10099000E6CF85E490E0B6010E94C10957FC05C08E
:1009A0004114510439F404FF05C051944194510895
:1009B0008DE201C08BE2B60190E00E94C10980E3A4
:1009C0009AE0491651042CF08F5F5AE0451A5108FD
:1009D000F7CFB60190E00E94C109B601C201C096EE
:1009E0000E94C10957C1833631F0833779F08335CE
:1009F00009F058C021C05201E2E0AE0EB11CF20174
:100A00008081898301E010E0230114C05201F2E0EB
:100A1000AF0EB11CF2014080518026FF03C0612F50
:100A200070E002C06FEF7FEFC2012A8B0E94B6090F
:100A30008C012A892F7715C05201F2E0AF0EB11C4C
:100A4000F2014080518026FF03C0612F70E002C098
:100A50006FEF7FEFC2012A8B0E9499098C012A89CE
:100A60002068322E23FD1AC08F2D90E00817190739
:100A7000A8F4B60180E290E00E94C109FA94F4CF94
:100A8000F20137FC859137FE81912F01B60190E08C
:100A90000E94C109F110FA940150110901151105C4
:100AA00079F7F8C0843611F0893659F5520127FFDD
:100AB00009C0F4E0AF0EB11CF20160817181828146
:100AC00093810AC0F2E0AF0EB11CF2016081718126
:100AD000072E000C880B990B2F76322E97FF09C03A
:100AE00090958095709561957F4F8F4F9F4F2068AF
:100AF000322E2AE030E0A3010E941C0AE82EE618FC
:100B00003FC0022F853721F40F7E2AE030E01DC060
:100B1000097F8F3691F018F4883559F0C5C08037B9
:100B200019F0883711F0C0C0006104FF09C00460EB
:100B300007C024FF08C0066006C028E030E005C0FA
:100B400020E130E002C020E132E0520107FF09C09D
:100B5000F4E0AF0EB11CF20160817181828193815A
:100B600008C0F2E0AF0EB11CF2016081718180E03B
:100B700090E0A3010E941C0AE82EE6180F77302EA1
:100B800036FE0BC0332D3E7FE11650F434FE0AC012
:100B900032FC08C0332D3E7E05C00E2D332D03C020
:100BA0000E2D01C0012F34FF0CC0FE01EE0DF11D12
:100BB0008081803311F4397E08C032FF05C00E5F9A
:100BC00004C0832F867809F00F5F33FD13C030FF18
:100BD00006C01E2D0F1518F41F0D101B0F2D0F151D
:100BE00068F4B60180E290E03B8B0E94C1090F5F80
:100BF0003B89F5CF0F1510F4F01A01C0F12C34FF2A
:100C000012C0B60180E390E03B8B0E94C1093B8992
:100C100032FF17C031FD03C088E790E002C088E5CD
:100C200090E0B6010CC0832F867859F031FF02C0E6
:100C30008BE201C080E237FD8DE2B60190E00E94B8
:100C4000C109E11638F4B60180E390E00E94C109C1
:100C50001150F7CFEA94F301EE0DF11D8081B6013A
:100C600090E00E94C109E110F5CF14C0F4E0FF1537
:100C700058F584E0F81A33FE1EC0211026C003FF89
:100C80002AC00CEA10E0F32DF0713F2EF801849198
:100C9000811124C0FF2009F4E5CCB60180E290E088
:100CA0000E94C109FA94F6CFF6018681978126C089
:100CB0008FEF9FEF23C0B60180E290E00E94C10950
:100CC000FA94F110F8CFD9CFF12CB601822D90E033
:100CD0000E94C109D4CF00EB10E0D5CF3110805273
:100CE000B60190E00E94C1090F5F1F4FCFCF23E0F4
:100CF0002F1510F483E0BECFF12CC1CF6396E2E153
:100D00000C94A608CF93DF9300D000D000D0CDB7CD
:100D1000DEB780E88093610081E0809361000E94EB
:100D2000F0010E94270280EC92E10E94AE020EE0E8
:100D300011E09E012F5F3F4F790180E4D82E0E9481
:100D4000F701C82E0E94950281E00E948E0280E089
:100D500091E00E9472020E94080283E00E948E02CB
:100D60006C2D70E080E090E00E948F0720E030E082
:100D700040E252E40E941D0820E030E048E652E4E0
:100D80000E941D079F938F937F936F931F930F93E1
:100D9000FF92EF920E94F90963E171E082E391E032
:100DA0000E94AF09B70182E391E00E94A40969E1C2
:100DB00071E082E391E00E94A40982E391E00E9445
:100DC00072020E9411020E94080284E00E948E02B8
:100DD00080E00E94C00260E882E291E00E94D302BB
:100DE0000FB6F894DEBF0FBECDBF882389F06CE14B
:100DF00071E082E391E00E94AF0963E271E082E377
:100E000091E00E94A40982E391E00E94720208C06E
:100E100082E291E00E94720280912201809323017C
:100E20008BB18D258BB93FEF89E698E13150804039
:100E30009040E1F700C0000082CF0E9431070C947F
:100E4000E3070E94DC0758F00E94D50740F029F420
:100E50005F3F29F00C94CC0751110C9417080C94A7
:100E6000D2070E94F40768F39923B1F3552391F355
:100E7000951B550BBB27AA2762177307840738F009
:100E80009F5F5F4F220F331F441FAA1FA9F335D066
:100E90000E2E3AF0E0E832D091505040E695001C1A
:100EA000CAF72BD0FE2F29D0660F771F881FBB1FD4
:100EB000261737074807AB07B0E809F0BB0B802DB2
:100EC000BF01FF2793585F4F3AF09E3F510578F0DE
:100ED0000C94CC070C9417085F3FE4F3983ED4F3CE
:100EE000869577956795B795F7959F5FC9F7880FB2
:100EF000911D9695879597F90895E1E0660F771F04
:100F0000881FBB1F621773078407BA0720F0621B94
:100F1000730B840BBA0BEE1F88F7E0950895E894E5
:100F200009C097FB3EF490958095709561957F4F31
:100F30008F4F9F4F9923A9F0F92F96E9BB279395DF
:100F4000F695879577956795B795F111F8CFFAF4EF
:100F5000BB0F11F460FF1BC06F5F7F4F8F4F9F4F20
:100F600016C0882311F096E911C0772321F09EE87E
:100F7000872F762F05C0662371F096E8862F70E0E4
:100F800060E02AF09A95660F771F881FDAF7880FBE
:100F90009695879597F9089597F99F6780E870E08F
:100FA00060E008959FEF80EC089500240A941616DF
:100FB000170618060906089500240A941216130647
:100FC000140605060895092E0394000C11F48823D5
:100FD00052F0BB0F40F4BF2B11F460FF04C06F5FF1
:100FE0007F4F8F4F9F4F089557FD9058440F551FC7
:100FF00059F05F3F71F04795880F97FB991F61F09B
:101000009F3F79F087950895121613061406551F11
:10101000F2CF4695F1DF08C0161617061806991F7D
:10102000F1CF86957105610508940895E894BB2772
:1010300066277727CB0197F908950E9430080C9412
:10104000E3070E94D50738F00E94DC0720F09523C3
:1010500011F00C94CC070C94D20711240C941708AF
:101060000E94F40770F3959FC1F3950F50E0551F50
:10107000629FF001729FBB27F00DB11D639FAA27ED
:10108000F00DB11DAA1F649F6627B00DA11D661F3C
:10109000829F2227B00DA11D621F739FB00DA11D5D
:1010A000621F839FA00D611D221F749F3327A00D17
:1010B000611D231F849F600D211D822F762F6A2FB3
:1010C00011249F5750409AF0F1F088234AF0EE0F18
:1010D000FF1FBB1F661F771F881F91505040A9F745
:1010E0009E3F510580F00C94CC070C9417085F3F8D
:1010F000E4F3983ED4F3869577956795B795F79581
:10110000E7959F5FC1F7FE2B880F911D96958795F8
:1011100097F908952F923F924F925F926F927F922C
:101120008F929F92AF92BF92CF92DF92EF92FF92F7
:101130000F931F93CF93DF93CDB7DEB7CA1BDB0BA3
:101140000FB6F894DEBF0FBECDBF09942A88398848
:1011500048885F846E847D848C849B84AA84B9844F
:10116000C884DF80EE80FD800C811B81AA81B9815B
:10117000CE0FD11D0FB6F894DEBF0FBECDBFED016F
:101180000895283008F027E03327DA01990F311D40
:1011900087FD916000966105710539F432602E5F1C
:1011A0003D9330E32A95E1F708959F3F30F0803872
:1011B0007105610509F03C5F3C5F3D93913008F09B
:1011C0008068911DDF93CF931F930F93FF92EF924F
:1011D000192F987F9695E92F96959695E90FFF27F9
:1011E000EE5FFC4F99273327EE24FF24A701E70188
:1011F00005900894079428F4360FE71EF81E491F3F
:10120000511D660F771F881F991F0694A1F705903F
:10121000079428F4E70EF81E491F561FC11D770FCB
:10122000881F991F661F0694A1F70590079428F45C
:10123000F80E491F561FC71FD11D880F991F661F23
:10124000771F0694A1F70590079420F4490F561FC5
:10125000C71FD81F990F661F771F881F0694A9F70D
:1012600084911095177041F0D695C795579547957D
:10127000F794E7941A95C1F7E8EAF2E068941590BC
:10128000159135916591959105907FE27395E118DF
:10129000F10A430B560BC90BD009C0F7E10CF11E44
:1012A000431F561FC91FD01D7EF4703311F48A9559
:1012B000E6CFE894015030F0080F0AF40027021737
:1012C00008F4202F2395022F7A3328F079E37D93B9
:1012D0002A95E9F710C07D932A9589F6069497958B
:1012E0006795379517951794E118F10A430B560B3C
:1012F000C90BD00998F023957E9173957A3308F045
:1013000070E37C932013B8F77E9170617D9330F089
:10131000839571E37D9370E32A95E1F71124EF90B3
:10132000FF900F911F91CF91DF91992787FD9095A5
:101330000895FC010590615070400110D8F7809528
:1013400090958E0F9F1F0895FB01DC010D900020EA
:10135000E9F7119701900D920020E1F70895FB0144
:10136000DC0101900D920020E1F70895FC0161502D
:10137000704001900110D8F7809590958E0F9F1FB7
:1013800008950F931F93CF93DF93FB01238121FDDA
:1013900003C08FEF9FEF28C022FF16C04681578100
:1013A000248135814217530744F4A081B1819D0106
:1013B0002F5F3F4F318320838C93268137812F5FAE
:1013C0003F4F3783268310C0EB01092F182F00846D
:1013D000F185E02D0995892BE1F68E819F8101969B
:1013E0009F838E83812F902FDF91CF911F910F913B
:1013F0000895AEE0B0E0EFEFF9E00C9498080D89A5
:101400001E8986E08C831A8309838FEF9FE79E8372
:101410008D83AE01475E5F4F6F89788DCE01019657
:101420000E9406032F813885F801E20FF31F108216
:101430002E96E4E00C94B408FA01AA27283051F162
:10144000203181F1E8946F936E7F6E5F7F4F8F4FF5
:101450009F4FAF4FB1E03ED0B4E03CD0670F781F54
:10146000891F9A1FA11D680F791F8A1F911DA11D39
:101470006A0F711D811D911DA11D20D009F4689472
:101480003F912AE0269F11243019305D3193DEF61A
:10149000CF010895462F4770405D4193B3E00FD0D0
:1014A000C9F7F6CF462F4F70405D4A3318F0495DBB
:1014B00031FD4052419302D0A9F7EACFB4E0A6959E
:1014C0009795879577956795BA95C9F700976105C0
:1014D000710508959B01AC010A2E06945795479516
:1014E00037952795BA95C9F7620F731F841F951F0B
:0814F000A01D0895F894FFCF40
:1014F800534F4E415220414E442047505300252E11
:10150800336600446973743A00636D006572726FE4
:0215180072005F
:00000001FF
